{
  "contractName": "DarkWindsFirstEdition",
  "abi": [
    {
      "constant": true,
      "inputs": [
        {
          "name": "_tokenId",
          "type": "uint256"
        }
      ],
      "name": "getApproved",
      "outputs": [
        {
          "name": "",
          "type": "address"
        }
      ],
      "payable": false,
      "stateMutability": "view",
      "type": "function"
    },
    {
      "constant": false,
      "inputs": [
        {
          "name": "_to",
          "type": "address"
        },
        {
          "name": "_tokenId",
          "type": "uint256"
        }
      ],
      "name": "approve",
      "outputs": [],
      "payable": false,
      "stateMutability": "nonpayable",
      "type": "function"
    },
    {
      "constant": true,
      "inputs": [],
      "name": "cost",
      "outputs": [
        {
          "name": "",
          "type": "uint256"
        }
      ],
      "payable": false,
      "stateMutability": "view",
      "type": "function"
    },
    {
      "constant": false,
      "inputs": [
        {
          "name": "_from",
          "type": "address"
        },
        {
          "name": "_to",
          "type": "address"
        },
        {
          "name": "_tokenId",
          "type": "uint256"
        }
      ],
      "name": "transferFrom",
      "outputs": [],
      "payable": false,
      "stateMutability": "nonpayable",
      "type": "function"
    },
    {
      "constant": true,
      "inputs": [
        {
          "name": "",
          "type": "uint256"
        }
      ],
      "name": "teamAddresses",
      "outputs": [
        {
          "name": "",
          "type": "address"
        }
      ],
      "payable": false,
      "stateMutability": "view",
      "type": "function"
    },
    {
      "constant": true,
      "inputs": [],
      "name": "publisherAddress",
      "outputs": [
        {
          "name": "",
          "type": "address"
        }
      ],
      "payable": false,
      "stateMutability": "view",
      "type": "function"
    },
    {
      "constant": true,
      "inputs": [],
      "name": "totalShares",
      "outputs": [
        {
          "name": "",
          "type": "uint256"
        }
      ],
      "payable": false,
      "stateMutability": "view",
      "type": "function"
    },
    {
      "constant": false,
      "inputs": [],
      "name": "unpause",
      "outputs": [],
      "payable": false,
      "stateMutability": "nonpayable",
      "type": "function"
    },
    {
      "constant": false,
      "inputs": [
        {
          "name": "_from",
          "type": "address"
        },
        {
          "name": "_to",
          "type": "address"
        },
        {
          "name": "_tokenId",
          "type": "uint256"
        }
      ],
      "name": "safeTransferFrom",
      "outputs": [],
      "payable": false,
      "stateMutability": "nonpayable",
      "type": "function"
    },
    {
      "constant": false,
      "inputs": [],
      "name": "claim",
      "outputs": [],
      "payable": false,
      "stateMutability": "nonpayable",
      "type": "function"
    },
    {
      "constant": true,
      "inputs": [
        {
          "name": "_tokenId",
          "type": "uint256"
        }
      ],
      "name": "exists",
      "outputs": [
        {
          "name": "",
          "type": "bool"
        }
      ],
      "payable": false,
      "stateMutability": "view",
      "type": "function"
    },
    {
      "constant": true,
      "inputs": [],
      "name": "paused",
      "outputs": [
        {
          "name": "",
          "type": "bool"
        }
      ],
      "payable": false,
      "stateMutability": "view",
      "type": "function"
    },
    {
      "constant": true,
      "inputs": [
        {
          "name": "",
          "type": "uint256"
        }
      ],
      "name": "payees",
      "outputs": [
        {
          "name": "",
          "type": "address"
        }
      ],
      "payable": false,
      "stateMutability": "view",
      "type": "function"
    },
    {
      "constant": true,
      "inputs": [
        {
          "name": "_tokenId",
          "type": "uint256"
        }
      ],
      "name": "ownerOf",
      "outputs": [
        {
          "name": "",
          "type": "address"
        }
      ],
      "payable": false,
      "stateMutability": "view",
      "type": "function"
    },
    {
      "constant": true,
      "inputs": [
        {
          "name": "_owner",
          "type": "address"
        }
      ],
      "name": "balanceOf",
      "outputs": [
        {
          "name": "",
          "type": "uint256"
        }
      ],
      "payable": false,
      "stateMutability": "view",
      "type": "function"
    },
    {
      "constant": false,
      "inputs": [],
      "name": "pause",
      "outputs": [],
      "payable": false,
      "stateMutability": "nonpayable",
      "type": "function"
    },
    {
      "constant": true,
      "inputs": [],
      "name": "owner",
      "outputs": [
        {
          "name": "",
          "type": "address"
        }
      ],
      "payable": false,
      "stateMutability": "view",
      "type": "function"
    },
    {
      "constant": true,
      "inputs": [
        {
          "name": "",
          "type": "address"
        }
      ],
      "name": "released",
      "outputs": [
        {
          "name": "",
          "type": "uint256"
        }
      ],
      "payable": false,
      "stateMutability": "view",
      "type": "function"
    },
    {
      "constant": false,
      "inputs": [
        {
          "name": "_to",
          "type": "address"
        },
        {
          "name": "_approved",
          "type": "bool"
        }
      ],
      "name": "setApprovalForAll",
      "outputs": [],
      "payable": false,
      "stateMutability": "nonpayable",
      "type": "function"
    },
    {
      "constant": false,
      "inputs": [
        {
          "name": "_from",
          "type": "address"
        },
        {
          "name": "_to",
          "type": "address"
        },
        {
          "name": "_tokenId",
          "type": "uint256"
        },
        {
          "name": "_data",
          "type": "bytes"
        }
      ],
      "name": "safeTransferFrom",
      "outputs": [],
      "payable": false,
      "stateMutability": "nonpayable",
      "type": "function"
    },
    {
      "constant": true,
      "inputs": [
        {
          "name": "",
          "type": "address"
        }
      ],
      "name": "shares",
      "outputs": [
        {
          "name": "",
          "type": "uint256"
        }
      ],
      "payable": false,
      "stateMutability": "view",
      "type": "function"
    },
    {
      "constant": true,
      "inputs": [],
      "name": "locked",
      "outputs": [
        {
          "name": "",
          "type": "bool"
        }
      ],
      "payable": false,
      "stateMutability": "view",
      "type": "function"
    },
    {
      "constant": true,
      "inputs": [],
      "name": "megoAddress",
      "outputs": [
        {
          "name": "",
          "type": "address"
        }
      ],
      "payable": false,
      "stateMutability": "view",
      "type": "function"
    },
    {
      "constant": true,
      "inputs": [],
      "name": "totalReleased",
      "outputs": [
        {
          "name": "",
          "type": "uint256"
        }
      ],
      "payable": false,
      "stateMutability": "view",
      "type": "function"
    },
    {
      "constant": true,
      "inputs": [
        {
          "name": "_owner",
          "type": "address"
        },
        {
          "name": "_operator",
          "type": "address"
        }
      ],
      "name": "isApprovedForAll",
      "outputs": [
        {
          "name": "",
          "type": "bool"
        }
      ],
      "payable": false,
      "stateMutability": "view",
      "type": "function"
    },
    {
      "constant": false,
      "inputs": [
        {
          "name": "newOwner",
          "type": "address"
        }
      ],
      "name": "transferOwnership",
      "outputs": [],
      "payable": false,
      "stateMutability": "nonpayable",
      "type": "function"
    },
    {
      "constant": false,
      "inputs": [],
      "name": "lock",
      "outputs": [],
      "payable": false,
      "stateMutability": "nonpayable",
      "type": "function"
    },
    {
      "inputs": [
        {
          "name": "_payees",
          "type": "address[]"
        },
        {
          "name": "_shares",
          "type": "uint256[]"
        }
      ],
      "payable": false,
      "stateMutability": "nonpayable",
      "type": "constructor"
    },
    {
      "payable": true,
      "stateMutability": "payable",
      "type": "fallback"
    },
    {
      "anonymous": false,
      "inputs": [],
      "name": "Locked",
      "type": "event"
    },
    {
      "anonymous": false,
      "inputs": [],
      "name": "Pause",
      "type": "event"
    },
    {
      "anonymous": false,
      "inputs": [],
      "name": "Unpause",
      "type": "event"
    },
    {
      "anonymous": false,
      "inputs": [
        {
          "indexed": true,
          "name": "previousOwner",
          "type": "address"
        },
        {
          "indexed": true,
          "name": "newOwner",
          "type": "address"
        }
      ],
      "name": "OwnershipTransferred",
      "type": "event"
    },
    {
      "anonymous": false,
      "inputs": [
        {
          "indexed": true,
          "name": "_from",
          "type": "address"
        },
        {
          "indexed": true,
          "name": "_to",
          "type": "address"
        },
        {
          "indexed": false,
          "name": "_tokenId",
          "type": "uint256"
        }
      ],
      "name": "Transfer",
      "type": "event"
    },
    {
      "anonymous": false,
      "inputs": [
        {
          "indexed": true,
          "name": "_owner",
          "type": "address"
        },
        {
          "indexed": true,
          "name": "_approved",
          "type": "address"
        },
        {
          "indexed": false,
          "name": "_tokenId",
          "type": "uint256"
        }
      ],
      "name": "Approval",
      "type": "event"
    },
    {
      "anonymous": false,
      "inputs": [
        {
          "indexed": true,
          "name": "_owner",
          "type": "address"
        },
        {
          "indexed": true,
          "name": "_operator",
          "type": "address"
        },
        {
          "indexed": false,
          "name": "_approved",
          "type": "bool"
        }
      ],
      "name": "ApprovalForAll",
      "type": "event"
    },
    {
      "constant": true,
      "inputs": [],
      "name": "allocatedTokens",
      "outputs": [
        {
          "name": "",
          "type": "uint256"
        }
      ],
      "payable": false,
      "stateMutability": "view",
      "type": "function"
    },
    {
      "constant": true,
      "inputs": [],
      "name": "name",
      "outputs": [
        {
          "name": "",
          "type": "string"
        }
      ],
      "payable": false,
      "stateMutability": "view",
      "type": "function"
    },
    {
      "constant": true,
      "inputs": [],
      "name": "symbol",
      "outputs": [
        {
          "name": "",
          "type": "string"
        }
      ],
      "payable": false,
      "stateMutability": "view",
      "type": "function"
    },
    {
      "constant": true,
      "inputs": [],
      "name": "tokenUri",
      "outputs": [
        {
          "name": "",
          "type": "string"
        },
        {
          "name": "",
          "type": "uint256"
        }
      ],
      "payable": false,
      "stateMutability": "view",
      "type": "function"
    },
    {
      "constant": true,
      "inputs": [
        {
          "name": "_tokenId",
          "type": "uint256"
        }
      ],
      "name": "tokenURI",
      "outputs": [
        {
          "name": "",
          "type": "string"
        }
      ],
      "payable": false,
      "stateMutability": "view",
      "type": "function"
    },
    {
      "constant": true,
      "inputs": [
        {
          "name": "_owner",
          "type": "address"
        },
        {
          "name": "_index",
          "type": "uint256"
        }
      ],
      "name": "tokenOfOwnerByIndex",
      "outputs": [
        {
          "name": "",
          "type": "uint256"
        }
      ],
      "payable": false,
      "stateMutability": "view",
      "type": "function"
    },
    {
      "constant": true,
      "inputs": [],
      "name": "totalSupply",
      "outputs": [
        {
          "name": "",
          "type": "uint256"
        }
      ],
      "payable": false,
      "stateMutability": "view",
      "type": "function"
    },
    {
      "constant": true,
      "inputs": [
        {
          "name": "_index",
          "type": "uint256"
        }
      ],
      "name": "tokenByIndex",
      "outputs": [
        {
          "name": "",
          "type": "uint256"
        }
      ],
      "payable": false,
      "stateMutability": "view",
      "type": "function"
    },
    {
      "constant": false,
      "inputs": [
        {
          "name": "_uri",
          "type": "string"
        },
        {
          "name": "_uriIndex",
          "type": "uint256"
        }
      ],
      "name": "setTokenURI",
      "outputs": [],
      "payable": false,
      "stateMutability": "nonpayable",
      "type": "function"
    },
    {
      "constant": true,
      "inputs": [
        {
          "name": "_owner",
          "type": "address"
        }
      ],
      "name": "tokensOfOwner",
      "outputs": [
        {
          "name": "",
          "type": "uint256[]"
        }
      ],
      "payable": false,
      "stateMutability": "view",
      "type": "function"
    },
    {
      "constant": false,
      "inputs": [
        {
          "name": "_newCost",
          "type": "uint256"
        }
      ],
      "name": "changeCardCost",
      "outputs": [],
      "payable": false,
      "stateMutability": "nonpayable",
      "type": "function"
    },
    {
      "constant": false,
      "inputs": [
        {
          "name": "_to",
          "type": "address"
        },
        {
          "name": "_prototypeIds",
          "type": "uint256[]"
        }
      ],
      "name": "giveUserCards",
      "outputs": [],
      "payable": false,
      "stateMutability": "nonpayable",
      "type": "function"
    },
    {
      "constant": false,
      "inputs": [],
      "name": "buyBoosterPack",
      "outputs": [],
      "payable": true,
      "stateMutability": "payable",
      "type": "function"
    },
    {
      "constant": false,
      "inputs": [
        {
          "name": "_toAddress",
          "type": "address"
        }
      ],
      "name": "buyBoosterForFriend",
      "outputs": [],
      "payable": true,
      "stateMutability": "payable",
      "type": "function"
    },
    {
      "constant": true,
      "inputs": [
        {
          "name": "_tokenId",
          "type": "uint256"
        }
      ],
      "name": "getCard",
      "outputs": [
        {
          "name": "",
          "type": "uint256"
        }
      ],
      "payable": false,
      "stateMutability": "view",
      "type": "function"
    },
    {
      "constant": true,
      "inputs": [
        {
          "name": "_owner",
          "type": "address"
        }
      ],
      "name": "cardsOfOwner",
      "outputs": [
        {
          "name": "",
          "type": "uint256[]"
        }
      ],
      "payable": false,
      "stateMutability": "view",
      "type": "function"
    },
    {
      "constant": true,
      "inputs": [],
      "name": "cardSupply",
      "outputs": [
        {
          "name": "",
          "type": "uint256[]"
        }
      ],
      "payable": false,
      "stateMutability": "view",
      "type": "function"
    }
  ],
  "bytecode": "0x606060405260006005556000600655734ab6c984e72cbab4162429721839d72b188010e3600a60006101000a81548173ffffffffffffffffffffffffffffffffffffffff021916908373ffffffffffffffffffffffffffffffffffffffff16021790555072c0bca70eaaadf21a158141ec7ea699a17d63ed600b60006101000a81548173ffffffffffffffffffffffffffffffffffffffff021916908373ffffffffffffffffffffffffffffffffffffffff16021790555060e060405190810160405280734978faf663a3f1a6c74accccbd63294efec6462473ffffffffffffffffffffffffffffffffffffffff1673ffffffffffffffffffffffffffffffffffffffff16815260200173772009e69b051879e1a5255d9af00723df9a6e0473ffffffffffffffffffffffffffffffffffffffff1673ffffffffffffffffffffffffffffffffffffffff16815260200173a464b05832a72a1a47ace2be18635e3a4c9a240a73ffffffffffffffffffffffffffffffffffffffff1673ffffffffffffffffffffffffffffffffffffffff16815260200173d450fcbfbb75cdaeb65693849a6eff0c2976026f73ffffffffffffffffffffffffffffffffffffffff1673ffffffffffffffffffffffffffffffffffffffff16815260200173d129bbf705dc91f50c5d9b44749507f458a733c873ffffffffffffffffffffffffffffffffffffffff1673ffffffffffffffffffffffffffffffffffffffff16815260200173fdc2ad68fd1ef5341a442d0e2fc8b974e273ac1673ffffffffffffffffffffffffffffffffffffffff1673ffffffffffffffffffffffffffffffffffffffff168152602001734ab6c984e72cbab4162429721839d72b188010e373ffffffffffffffffffffffffffffffffffffffff1673ffffffffffffffffffffffffffffffffffffffff16815250600c906007620002bd929190620006df565b506000600d60006101000a81548160ff0219169083151502179055506000600d60016101000a81548160ff02191690831515021790555066038d7ea4c68000600e556001600f55620f42406010556000601155606060405190810160405280602a81526020017f4461726b2057696e64732046697273742045646974696f6e204361726473202881526020017f526576697369746564290000000000000000000000000000000000000000000081525060129080519060200190620003849291906200076e565b506040805190810160405280600681526020017f445731535452000000000000000000000000000000000000000000000000000081525060139080519060200190620003d29291906200076e565b50606060405190810160405280603481526020017f68747470733a2f2f636f7273617269756d2e706c61796461726b77696e64732e81526020017f636f6d2f63617264732f30303030302e6a736f6e00000000000000000000000081525060149080519060200190620004479291906200076e565b50602a60155534156200045957600080fd5b60405162004a4238038062004a42833981016040528080518201919060200180518201919050508181600033600460006101000a81548173ffffffffffffffffffffffffffffffffffffffff021916908373ffffffffffffffffffffffffffffffffffffffff16021790555081518351141515620004d657600080fd5b600090505b82518110156200054357620005358382815181101515620004f857fe5b9060200190602002015183838151811015156200051157fe5b906020019060200201516200054e6401000000000262003fe9176401000000009004565b8080600101915050620004db565b505050505062000892565b600073ffffffffffffffffffffffffffffffffffffffff168273ffffffffffffffffffffffffffffffffffffffff16141515156200058b57600080fd5b6000811115156200059b57600080fd5b6000600760008473ffffffffffffffffffffffffffffffffffffffff1673ffffffffffffffffffffffffffffffffffffffff16815260200190815260200160002054141515620005ea57600080fd5b60098054806001018281620006009190620007f5565b9160005260206000209001600084909190916101000a81548173ffffffffffffffffffffffffffffffffffffffff021916908373ffffffffffffffffffffffffffffffffffffffff1602179055505080600760008473ffffffffffffffffffffffffffffffffffffffff1673ffffffffffffffffffffffffffffffffffffffff16815260200190815260200160002081905550620006b881600554620006c264010000000002620037f4179091906401000000009004565b6005819055505050565b60008183019050828110151515620006d657fe5b80905092915050565b8280548282559060005260206000209081019282156200075b579160200282015b828111156200075a5782518260006101000a81548173ffffffffffffffffffffffffffffffffffffffff021916908373ffffffffffffffffffffffffffffffffffffffff1602179055509160200191906001019062000700565b5b5090506200076a919062000824565b5090565b828054600181600116156101000203166002900490600052602060002090601f016020900481019282601f10620007b157805160ff1916838001178555620007e2565b82800160010185558215620007e2579182015b82811115620007e1578251825591602001919060010190620007c4565b5b509050620007f191906200086a565b5090565b8154818355818115116200081f578183600052602060002091820191016200081e91906200086a565b5b505050565b6200086791905b808211156200086357600081816101000a81549073ffffffffffffffffffffffffffffffffffffffff0219169055506001016200082b565b5090565b90565b6200088f91905b808211156200088b57600081600090555060010162000871565b5090565b90565b6141a080620008a26000396000f300606060405260043610610219576000357c0100000000000000000000000000000000000000000000000000000000900463ffffffff1680622f95691461021e57806306fdde0314610247578063081812fc146102d5578063095ea7b31461033857806309a3beef1461037a57806313faede6146103e057806318160ddd1461040957806320e07e7f1461043257806323b872dd146104555780632419217e146104b65780632f745c5914610519578063355e0c5d1461056f57806336516a8a146106045780633a98ef39146106595780633d8807f8146106825780633f4ba83a1461071057806342842e0e146107255780634e71d92d146107865780634f558e791461079b5780634f6ccce7146107d65780635c975abb1461080d57806363037b0c1461083a5780636352211e1461089d57806370a08231146109005780637c97479b1461094d5780638456cb59146109b75780638462151c146109cc5780638da5cb5b14610a5a5780639188d31214610aaf57806395d89b4114610ae65780639852595c14610b74578063a22cb46514610bc1578063a3006abf14610c05578063a772053114610c0f578063b88d4fde14610c3d578063c87b56dd14610ce1578063ce7c2ac214610d7d578063cf30901214610dca578063e1479d0714610df7578063e33b7de314610e4c578063e968327614610e75578063e985e9c514610eee578063f2fde38b14610f5e578063f83d08ba14610f97575b600080fd5b341561022957600080fd5b610231610fac565b6040518082815260200191505060405180910390f35b341561025257600080fd5b61025a610fb6565b6040518080602001828103825283818151815260200191508051906020019080838360005b8381101561029a57808201518184015260208101905061027f565b50505050905090810190601f1680156102c75780820380516001836020036101000a031916815260200191505b509250505060405180910390f35b34156102e057600080fd5b6102f6600480803590602001909190505061105e565b604051808273ffffffffffffffffffffffffffffffffffffffff1673ffffffffffffffffffffffffffffffffffffffff16815260200191505060405180910390f35b341561034357600080fd5b610378600480803573ffffffffffffffffffffffffffffffffffffffff1690602001909190803590602001909190505061109b565b005b341561038557600080fd5b6103de600480803590602001908201803590602001908080601f01602080910402602001604051908101604052809392919081815260200183838082843782019150505050505091908035906020019091905050611261565b005b34156103eb57600080fd5b6103f36115f6565b6040518082815260200191505060405180910390f35b341561041457600080fd5b61041c6115fc565b6040518082815260200191505060405180910390f35b341561043d57600080fd5b6104536004808035906020019091905050611609565b005b341561046057600080fd5b6104b4600480803573ffffffffffffffffffffffffffffffffffffffff1690602001909190803573ffffffffffffffffffffffffffffffffffffffff16906020019091908035906020019091905050611986565b005b34156104c157600080fd5b6104d76004808035906020019091905050611a9d565b604051808273ffffffffffffffffffffffffffffffffffffffff1673ffffffffffffffffffffffffffffffffffffffff16815260200191505060405180910390f35b341561052457600080fd5b610559600480803573ffffffffffffffffffffffffffffffffffffffff16906020019091908035906020019091905050611adc565b6040518082815260200191505060405180910390f35b341561057a57600080fd5b610582611b54565b6040518080602001838152602001828103825284818151815260200191508051906020019080838360005b838110156105c85780820151818401526020810190506105ad565b50505050905090810190601f1680156105f55780820380516001836020036101000a031916815260200191505b50935050505060405180910390f35b341561060f57600080fd5b610617611c07565b604051808273ffffffffffffffffffffffffffffffffffffffff1673ffffffffffffffffffffffffffffffffffffffff16815260200191505060405180910390f35b341561066457600080fd5b61066c611c2d565b6040518082815260200191505060405180910390f35b341561068d57600080fd5b6106b9600480803573ffffffffffffffffffffffffffffffffffffffff16906020019091905050611c33565b6040518080602001828103825283818151815260200191508051906020019060200280838360005b838110156106fc5780820151818401526020810190506106e1565b505050509050019250505060405180910390f35b341561071b57600080fd5b610723611d53565b005b341561073057600080fd5b610784600480803573ffffffffffffffffffffffffffffffffffffffff1690602001909190803573ffffffffffffffffffffffffffffffffffffffff16906020019091908035906020019091905050611e13565b005b341561079157600080fd5b610799611e4b565b005b34156107a657600080fd5b6107bc60048080359060200190919050506120b3565b604051808215151515815260200191505060405180910390f35b34156107e157600080fd5b6107f76004808035906020019091905050612124565b6040518082815260200191505060405180910390f35b341561081857600080fd5b61082061215d565b604051808215151515815260200191505060405180910390f35b341561084557600080fd5b61085b6004808035906020019091905050612170565b604051808273ffffffffffffffffffffffffffffffffffffffff1673ffffffffffffffffffffffffffffffffffffffff16815260200191505060405180910390f35b34156108a857600080fd5b6108be60048080359060200190919050506121af565b604051808273ffffffffffffffffffffffffffffffffffffffff1673ffffffffffffffffffffffffffffffffffffffff16815260200191505060405180910390f35b341561090b57600080fd5b610937600480803573ffffffffffffffffffffffffffffffffffffffff1690602001909190505061222c565b6040518082815260200191505060405180910390f35b341561095857600080fd5b6109606122b0565b6040518080602001828103825283818151815260200191508051906020019060200280838360005b838110156109a3578082015181840152602081019050610988565b505050509050019250505060405180910390f35b34156109c257600080fd5b6109ca612354565b005b34156109d757600080fd5b610a03600480803573ffffffffffffffffffffffffffffffffffffffff16906020019091905050612415565b6040518080602001828103825283818151815260200191508051906020019060200280838360005b83811015610a46578082015181840152602081019050610a2b565b505050509050019250505060405180910390f35b3415610a6557600080fd5b610a6d6124b2565b604051808273ffffffffffffffffffffffffffffffffffffffff1673ffffffffffffffffffffffffffffffffffffffff16815260200191505060405180910390f35b3415610aba57600080fd5b610ad060048080359060200190919050506124d8565b6040518082815260200191505060405180910390f35b3415610af157600080fd5b610af9612520565b6040518080602001828103825283818151815260200191508051906020019080838360005b83811015610b39578082015181840152602081019050610b1e565b50505050905090810190601f168015610b665780820380516001836020036101000a031916815260200191505b509250505060405180910390f35b3415610b7f57600080fd5b610bab600480803573ffffffffffffffffffffffffffffffffffffffff169060200190919050506125c8565b6040518082815260200191505060405180910390f35b3415610bcc57600080fd5b610c03600480803573ffffffffffffffffffffffffffffffffffffffff1690602001909190803515159060200190919050506125e0565b005b610c0d61271c565b005b610c3b600480803573ffffffffffffffffffffffffffffffffffffffff16906020019091905050612743565b005b3415610c4857600080fd5b610cdf600480803573ffffffffffffffffffffffffffffffffffffffff1690602001909190803573ffffffffffffffffffffffffffffffffffffffff1690602001909190803590602001909190803590602001908201803590602001908080601f016020809104026020016040519081016040528093929190818152602001838380828437820191505050505050919050506127df565b005b3415610cec57600080fd5b610d02600480803590602001909190505061281e565b6040518080602001828103825283818151815260200191508051906020019080838360005b83811015610d42578082015181840152602081019050610d27565b50505050905090810190601f168015610d6f5780820380516001836020036101000a031916815260200191505b509250505060405180910390f35b3415610d8857600080fd5b610db4600480803573ffffffffffffffffffffffffffffffffffffffff16906020019091905050612bc9565b6040518082815260200191505060405180910390f35b3415610dd557600080fd5b610ddd612be1565b604051808215151515815260200191505060405180910390f35b3415610e0257600080fd5b610e0a612bf4565b604051808273ffffffffffffffffffffffffffffffffffffffff1673ffffffffffffffffffffffffffffffffffffffff16815260200191505060405180910390f35b3415610e5757600080fd5b610e5f612c1a565b6040518082815260200191505060405180910390f35b3415610e8057600080fd5b610eec600480803573ffffffffffffffffffffffffffffffffffffffff1690602001909190803590602001908201803590602001908080602002602001604051908101604052809392919081815260200183836020028082843782019150505050505091905050612c20565b005b3415610ef957600080fd5b610f44600480803573ffffffffffffffffffffffffffffffffffffffff1690602001909190803573ffffffffffffffffffffffffffffffffffffffff1690602001909190505061305a565b604051808215151515815260200191505060405180910390f35b3415610f6957600080fd5b610f95600480803573ffffffffffffffffffffffffffffffffffffffff169060200190919050506130ee565b005b3415610fa257600080fd5b610faa613246565b005b6000601154905090565b610fbe613eb0565b60128054600181600116156101000203166002900480601f0160208091040260200160405190810160405280929190818152602001828054600181600116156101000203166002900480156110545780601f1061102957610100808354040283529160200191611054565b820191906000526020600020905b81548152906001019060200180831161103757829003601f168201915b5050505050905090565b60006001600083815260200190815260200160002060009054906101000a900473ffffffffffffffffffffffffffffffffffffffff169050919050565b60006110a6826121af565b90508073ffffffffffffffffffffffffffffffffffffffff168373ffffffffffffffffffffffffffffffffffffffff16141515156110e357600080fd5b8073ffffffffffffffffffffffffffffffffffffffff163373ffffffffffffffffffffffffffffffffffffffff1614806111235750611122813361305a565b5b151561112e57600080fd5b600073ffffffffffffffffffffffffffffffffffffffff1661114f8361105e565b73ffffffffffffffffffffffffffffffffffffffff1614158061119f5750600073ffffffffffffffffffffffffffffffffffffffff168373ffffffffffffffffffffffffffffffffffffffff1614155b1561125c57826001600084815260200190815260200160002060006101000a81548173ffffffffffffffffffffffffffffffffffffffff021916908373ffffffffffffffffffffffffffffffffffffffff1602179055508273ffffffffffffffffffffffffffffffffffffffff168173ffffffffffffffffffffffffffffffffffffffff167f8c5be1e5ebec7d5bd14f71427d1e84f3dd0314c0f7b2291e5b200ac8c7c3b925846040518082815260200191505060405180910390a35b505050565b600a60009054906101000a900473ffffffffffffffffffffffffffffffffffffffff1673ffffffffffffffffffffffffffffffffffffffff163373ffffffffffffffffffffffffffffffffffffffff1614806113235750600c60008154811015156112c857fe5b906000526020600020900160009054906101000a900473ffffffffffffffffffffffffffffffffffffffff1673ffffffffffffffffffffffffffffffffffffffff163373ffffffffffffffffffffffffffffffffffffffff16145b806113945750600c600181548110151561133957fe5b906000526020600020900160009054906101000a900473ffffffffffffffffffffffffffffffffffffffff1673ffffffffffffffffffffffffffffffffffffffff163373ffffffffffffffffffffffffffffffffffffffff16145b806114055750600c60028154811015156113aa57fe5b906000526020600020900160009054906101000a900473ffffffffffffffffffffffffffffffffffffffff1673ffffffffffffffffffffffffffffffffffffffff163373ffffffffffffffffffffffffffffffffffffffff16145b806114765750600c600381548110151561141b57fe5b906000526020600020900160009054906101000a900473ffffffffffffffffffffffffffffffffffffffff1673ffffffffffffffffffffffffffffffffffffffff163373ffffffffffffffffffffffffffffffffffffffff16145b806114e75750600c600481548110151561148c57fe5b906000526020600020900160009054906101000a900473ffffffffffffffffffffffffffffffffffffffff1673ffffffffffffffffffffffffffffffffffffffff163373ffffffffffffffffffffffffffffffffffffffff16145b806115585750600c60058154811015156114fd57fe5b906000526020600020900160009054906101000a900473ffffffffffffffffffffffffffffffffffffffff1673ffffffffffffffffffffffffffffffffffffffff163373ffffffffffffffffffffffffffffffffffffffff16145b806115c95750600c600681548110151561156e57fe5b906000526020600020900160009054906101000a900473ffffffffffffffffffffffffffffffffffffffff1673ffffffffffffffffffffffffffffffffffffffff163373ffffffffffffffffffffffffffffffffffffffff16145b15156115d457600080fd5b81601490805190602001906115ea929190613ec4565b50806015819055505050565b600e5481565b6000601880549050905090565b600a60009054906101000a900473ffffffffffffffffffffffffffffffffffffffff1673ffffffffffffffffffffffffffffffffffffffff163373ffffffffffffffffffffffffffffffffffffffff1614806116cb5750600c600081548110151561167057fe5b906000526020600020900160009054906101000a900473ffffffffffffffffffffffffffffffffffffffff1673ffffffffffffffffffffffffffffffffffffffff163373ffffffffffffffffffffffffffffffffffffffff16145b8061173c5750600c60018154811015156116e157fe5b906000526020600020900160009054906101000a900473ffffffffffffffffffffffffffffffffffffffff1673ffffffffffffffffffffffffffffffffffffffff163373ffffffffffffffffffffffffffffffffffffffff16145b806117ad5750600c600281548110151561175257fe5b906000526020600020900160009054906101000a900473ffffffffffffffffffffffffffffffffffffffff1673ffffffffffffffffffffffffffffffffffffffff163373ffffffffffffffffffffffffffffffffffffffff16145b8061181e5750600c60038154811015156117c357fe5b906000526020600020900160009054906101000a900473ffffffffffffffffffffffffffffffffffffffff1673ffffffffffffffffffffffffffffffffffffffff163373ffffffffffffffffffffffffffffffffffffffff16145b8061188f5750600c600481548110151561183457fe5b906000526020600020900160009054906101000a900473ffffffffffffffffffffffffffffffffffffffff1673ffffffffffffffffffffffffffffffffffffffff163373ffffffffffffffffffffffffffffffffffffffff16145b806119005750600c60058154811015156118a557fe5b906000526020600020900160009054906101000a900473ffffffffffffffffffffffffffffffffffffffff1673ffffffffffffffffffffffffffffffffffffffff163373ffffffffffffffffffffffffffffffffffffffff16145b806119715750600c600681548110151561191657fe5b906000526020600020900160009054906101000a900473ffffffffffffffffffffffffffffffffffffffff1673ffffffffffffffffffffffffffffffffffffffff163373ffffffffffffffffffffffffffffffffffffffff16145b151561197c57600080fd5b80600e8190555050565b806119913382613307565b151561199c57600080fd5b600073ffffffffffffffffffffffffffffffffffffffff168473ffffffffffffffffffffffffffffffffffffffff16141515156119d857600080fd5b600073ffffffffffffffffffffffffffffffffffffffff168373ffffffffffffffffffffffffffffffffffffffff1614151515611a1457600080fd5b611a1e848361339c565b611a288483613505565b611a328383613720565b8273ffffffffffffffffffffffffffffffffffffffff168473ffffffffffffffffffffffffffffffffffffffff167fddf252ad1be2c89b69c2b068fc378daa952ba7f163c4a11628f55a4df523b3ef846040518082815260200191505060405180910390a350505050565b600c81815481101515611aac57fe5b90600052602060002090016000915054906101000a900473ffffffffffffffffffffffffffffffffffffffff1681565b6000611ae78361222c565b82101515611af457600080fd5b601660008473ffffffffffffffffffffffffffffffffffffffff1673ffffffffffffffffffffffffffffffffffffffff16815260200190815260200160002082815481101515611b4057fe5b906000526020600020900154905092915050565b611b5c613eb0565b60006014601554818054600181600116156101000203166002900480601f016020809104026020016040519081016040528092919081815260200182805460018160011615610100020316600290048015611bf85780601f10611bcd57610100808354040283529160200191611bf8565b820191906000526020600020905b815481529060010190602001808311611bdb57829003601f168201915b50505050509150915091509091565b600b60009054906101000a900473ffffffffffffffffffffffffffffffffffffffff1681565b60055481565b611c3b613f44565b6000611c45613f44565b600080601660008773ffffffffffffffffffffffffffffffffffffffff1673ffffffffffffffffffffffffffffffffffffffff16815260200190815260200160002080549050935083604051805910611c9b5750595b90808252806020026020018201604052509250600091505b83821015611d4757601660008773ffffffffffffffffffffffffffffffffffffffff1673ffffffffffffffffffffffffffffffffffffffff16815260200190815260200160002082815481101515611d0757fe5b9060005260206000209001549050611d1e816124d8565b8383815181101515611d2c57fe5b90602001906020020181815250508180600101925050611cb3565b82945050505050919050565b600460009054906101000a900473ffffffffffffffffffffffffffffffffffffffff1673ffffffffffffffffffffffffffffffffffffffff163373ffffffffffffffffffffffffffffffffffffffff16141515611daf57600080fd5b600d60009054906101000a900460ff161515611dca57600080fd5b6000600d60006101000a81548160ff0219169083151502179055507f7805862f689e2f13df9f062ff482ad3ad112aca9e0847911ed832e158c525b3360405160405180910390a1565b80611e1e3382613307565b1515611e2957600080fd5b611e4584848460206040519081016040528060008152506127df565b50505050565b60008060003392506000600760008573ffffffffffffffffffffffffffffffffffffffff1673ffffffffffffffffffffffffffffffffffffffff16815260200190815260200160002054111515611ea157600080fd5b611ecd6006543073ffffffffffffffffffffffffffffffffffffffff16316137f490919063ffffffff16565b9150611f86600860008573ffffffffffffffffffffffffffffffffffffffff1673ffffffffffffffffffffffffffffffffffffffff16815260200190815260200160002054611f78600554611f6a600760008973ffffffffffffffffffffffffffffffffffffffff1673ffffffffffffffffffffffffffffffffffffffff168152602001908152602001600020548761381090919063ffffffff16565b61384890919063ffffffff16565b61385e90919063ffffffff16565b905060008114151515611f9857600080fd5b803073ffffffffffffffffffffffffffffffffffffffff163110151515611fbe57600080fd5b61201081600860008673ffffffffffffffffffffffffffffffffffffffff1673ffffffffffffffffffffffffffffffffffffffff168152602001908152602001600020546137f490919063ffffffff16565b600860008573ffffffffffffffffffffffffffffffffffffffff1673ffffffffffffffffffffffffffffffffffffffff16815260200190815260200160002081905550612068816006546137f490919063ffffffff16565b6006819055508273ffffffffffffffffffffffffffffffffffffffff166108fc829081150290604051600060405180830381858888f1935050505015156120ae57600080fd5b505050565b60008060008084815260200190815260200160002060009054906101000a900473ffffffffffffffffffffffffffffffffffffffff169050600073ffffffffffffffffffffffffffffffffffffffff168173ffffffffffffffffffffffffffffffffffffffff161415915050919050565b600061212e6115fc565b8210151561213b57600080fd5b60188281548110151561214a57fe5b9060005260206000209001549050919050565b600d60009054906101000a900460ff1681565b60098181548110151561217f57fe5b90600052602060002090016000915054906101000a900473ffffffffffffffffffffffffffffffffffffffff1681565b60008060008084815260200190815260200160002060009054906101000a900473ffffffffffffffffffffffffffffffffffffffff169050600073ffffffffffffffffffffffffffffffffffffffff168173ffffffffffffffffffffffffffffffffffffffff161415151561222357600080fd5b80915050919050565b60008073ffffffffffffffffffffffffffffffffffffffff168273ffffffffffffffffffffffffffffffffffffffff161415151561226957600080fd5b600260008373ffffffffffffffffffffffffffffffffffffffff1673ffffffffffffffffffffffffffffffffffffffff168152602001908152602001600020549050919050565b6122b8613f44565b60006122c2613f44565b60006018805490509250826040518059106122da5750595b90808252806020026020018201604052509150600090505b60188054905081101561234b5761232260188281548110151561231157fe5b9060005260206000209001546124d8565b828281518110151561233057fe5b906020019060200201818152505080806001019150506122f2565b81935050505090565b600460009054906101000a900473ffffffffffffffffffffffffffffffffffffffff1673ffffffffffffffffffffffffffffffffffffffff163373ffffffffffffffffffffffffffffffffffffffff161415156123b057600080fd5b600d60009054906101000a900460ff161515156123cc57600080fd5b6001600d60006101000a81548160ff0219169083151502179055507f6985a02210a168e66602d3235cb6db0e70f92b3ba4d376a33c0f3d9434bff62560405160405180910390a1565b61241d613f44565b601660008373ffffffffffffffffffffffffffffffffffffffff1673ffffffffffffffffffffffffffffffffffffffff1681526020019081526020016000208054806020026020016040519081016040528092919081815260200182805480156124a657602002820191906000526020600020905b815481526020019060010190808311612492575b50505050509050919050565b600460009054906101000a900473ffffffffffffffffffffffffffffffffffffffff1681565b600080601880549050831015156124ee57600080fd5b60196000848152602001908152602001600020549050601a600082815260200190815260200160002054915050919050565b612528613eb0565b60138054600181600116156101000203166002900480601f0160208091040260200160405190810160405280929190818152602001828054600181600116156101000203166002900480156125be5780601f10612593576101008083540402835291602001916125be565b820191906000526020600020905b8154815290600101906020018083116125a157829003601f168201915b5050505050905090565b60086020528060005260406000206000915090505481565b3373ffffffffffffffffffffffffffffffffffffffff168273ffffffffffffffffffffffffffffffffffffffff161415151561261b57600080fd5b80600360003373ffffffffffffffffffffffffffffffffffffffff1673ffffffffffffffffffffffffffffffffffffffff16815260200190815260200160002060008473ffffffffffffffffffffffffffffffffffffffff1673ffffffffffffffffffffffffffffffffffffffff16815260200190815260200160002060006101000a81548160ff0219169083151502179055508173ffffffffffffffffffffffffffffffffffffffff163373ffffffffffffffffffffffffffffffffffffffff167f17307eab39ab6107e8899845ad3d59bd9653f200f220920489ca2b5937696c3183604051808215151515815260200191505060405180910390a35050565b600d60009054906101000a900460ff1615151561273857600080fd5b61274133612743565b565b6000600d60009054906101000a900460ff1615151561276157600080fd5b600073ffffffffffffffffffffffffffffffffffffffff168273ffffffffffffffffffffffffffffffffffffffff161415151561279d57600080fd5b600e54348115156127aa57fe5b04905060105481601154011015156127c157600080fd5b806011600082825401925050819055506127db8282613877565b5050565b816127ea3382613307565b15156127f557600080fd5b612800858585611986565b61280c85858585613917565b151561281757600080fd5b5050505050565b612826613eb0565b61282e613f58565b6018805490508310151561284157600080fd5b60148054600181600116156101000203166002900480601f0160208091040260200160405190810160405280929190818152602001828054600181600116156101000203166002900480156128d75780601f106128ac576101008083540402835291602001916128d7565b820191906000526020600020905b8154815290600101906020018083116128ba57829003601f168201915b50505050509050600a612710601a60008681526020019081526020016000205481151561290057fe5b0481151561290a57fe5b066030017f0100000000000000000000000000000000000000000000000000000000000000028160155481518110151561294057fe5b9060200101907effffffffffffffffffffffffffffffffffffffffffffffffffffffffffffff1916908160001a905350600a6103e8601a60008681526020019081526020016000205481151561299257fe5b0481151561299c57fe5b066030017f010000000000000000000000000000000000000000000000000000000000000002816001601554018151811015156129d557fe5b9060200101907effffffffffffffffffffffffffffffffffffffffffffffffffffffffffffff1916908160001a905350600a6064601a600086815260200190815260200160002054811515612a2657fe5b04811515612a3057fe5b066030017f01000000000000000000000000000000000000000000000000000000000000000281600260155401815181101515612a6957fe5b9060200101907effffffffffffffffffffffffffffffffffffffffffffffffffffffffffffff1916908160001a905350600a80601a600086815260200190815260200160002054811515612ab957fe5b04811515612ac357fe5b066030017f01000000000000000000000000000000000000000000000000000000000000000281600360155401815181101515612afc57fe5b9060200101907effffffffffffffffffffffffffffffffffffffffffffffffffffffffffffff1916908160001a905350600a6001601a600086815260200190815260200160002054811515612b4d57fe5b04811515612b5757fe5b066030017f01000000000000000000000000000000000000000000000000000000000000000281600460155401815181101515612b9057fe5b9060200101907effffffffffffffffffffffffffffffffffffffffffffffffffffffffffffff1916908160001a90535080915050919050565b60076020528060005260406000206000915090505481565b600d60019054906101000a900460ff1681565b600a60009054906101000a900473ffffffffffffffffffffffffffffffffffffffff1681565b60065481565b6000600a60009054906101000a900473ffffffffffffffffffffffffffffffffffffffff1673ffffffffffffffffffffffffffffffffffffffff163373ffffffffffffffffffffffffffffffffffffffff161480612ce45750600c6000815481101515612c8957fe5b906000526020600020900160009054906101000a900473ffffffffffffffffffffffffffffffffffffffff1673ffffffffffffffffffffffffffffffffffffffff163373ffffffffffffffffffffffffffffffffffffffff16145b80612d555750600c6001815481101515612cfa57fe5b906000526020600020900160009054906101000a900473ffffffffffffffffffffffffffffffffffffffff1673ffffffffffffffffffffffffffffffffffffffff163373ffffffffffffffffffffffffffffffffffffffff16145b80612dc65750600c6002815481101515612d6b57fe5b906000526020600020900160009054906101000a900473ffffffffffffffffffffffffffffffffffffffff1673ffffffffffffffffffffffffffffffffffffffff163373ffffffffffffffffffffffffffffffffffffffff16145b80612e375750600c6003815481101515612ddc57fe5b906000526020600020900160009054906101000a900473ffffffffffffffffffffffffffffffffffffffff1673ffffffffffffffffffffffffffffffffffffffff163373ffffffffffffffffffffffffffffffffffffffff16145b80612ea85750600c6004815481101515612e4d57fe5b906000526020600020900160009054906101000a900473ffffffffffffffffffffffffffffffffffffffff1673ffffffffffffffffffffffffffffffffffffffff163373ffffffffffffffffffffffffffffffffffffffff16145b80612f195750600c6005815481101515612ebe57fe5b906000526020600020900160009054906101000a900473ffffffffffffffffffffffffffffffffffffffff1673ffffffffffffffffffffffffffffffffffffffff163373ffffffffffffffffffffffffffffffffffffffff16145b80612f8a5750600c6006815481101515612f2f57fe5b906000526020600020900160009054906101000a900473ffffffffffffffffffffffffffffffffffffffff1673ffffffffffffffffffffffffffffffffffffffff163373ffffffffffffffffffffffffffffffffffffffff16145b1515612f9557600080fd5b600d60019054906101000a900460ff16151515612fb157600080fd5b600073ffffffffffffffffffffffffffffffffffffffff168373ffffffffffffffffffffffffffffffffffffffff1614151515612fed57600080fd5b60105482516011540110151561300257600080fd5b600090505b81518110156130445761303783601880549050848481518110151561302857fe5b90602001906020020151613ae0565b8080600101915050613007565b8151601160008282540192505081905550505050565b6000600360008473ffffffffffffffffffffffffffffffffffffffff1673ffffffffffffffffffffffffffffffffffffffff16815260200190815260200160002060008373ffffffffffffffffffffffffffffffffffffffff1673ffffffffffffffffffffffffffffffffffffffff16815260200190815260200160002060009054906101000a900460ff16905092915050565b600460009054906101000a900473ffffffffffffffffffffffffffffffffffffffff1673ffffffffffffffffffffffffffffffffffffffff163373ffffffffffffffffffffffffffffffffffffffff1614151561314a57600080fd5b600073ffffffffffffffffffffffffffffffffffffffff168173ffffffffffffffffffffffffffffffffffffffff161415151561318657600080fd5b8073ffffffffffffffffffffffffffffffffffffffff16600460009054906101000a900473ffffffffffffffffffffffffffffffffffffffff1673ffffffffffffffffffffffffffffffffffffffff167f8be0079c531659141344cd1fd0a4f28419497f9722a3daafe3b4186f6b6457e060405160405180910390a380600460006101000a81548173ffffffffffffffffffffffffffffffffffffffff021916908373ffffffffffffffffffffffffffffffffffffffff16021790555050565b600460009054906101000a900473ffffffffffffffffffffffffffffffffffffffff1673ffffffffffffffffffffffffffffffffffffffff163373ffffffffffffffffffffffffffffffffffffffff161415156132a257600080fd5b600d60019054906101000a900460ff161515156132be57600080fd5b6001600d60016101000a81548160ff0219169083151502179055507f0f2e5b6c72c6a4491efd919a9f9a409f324ef0708c11ee57d410c2cb06c0992b60405160405180910390a1565b600080613313836121af565b90508073ffffffffffffffffffffffffffffffffffffffff168473ffffffffffffffffffffffffffffffffffffffff16148061338257508373ffffffffffffffffffffffffffffffffffffffff1661336a8461105e565b73ffffffffffffffffffffffffffffffffffffffff16145b806133935750613392818561305a565b5b91505092915050565b8173ffffffffffffffffffffffffffffffffffffffff166133bc826121af565b73ffffffffffffffffffffffffffffffffffffffff161415156133de57600080fd5b600073ffffffffffffffffffffffffffffffffffffffff166001600083815260200190815260200160002060009054906101000a900473ffffffffffffffffffffffffffffffffffffffff1673ffffffffffffffffffffffffffffffffffffffff161415156135015760006001600083815260200190815260200160002060006101000a81548173ffffffffffffffffffffffffffffffffffffffff021916908373ffffffffffffffffffffffffffffffffffffffff160217905550600073ffffffffffffffffffffffffffffffffffffffff168273ffffffffffffffffffffffffffffffffffffffff167f8c5be1e5ebec7d5bd14f71427d1e84f3dd0314c0f7b2291e5b200ac8c7c3b925836040518082815260200191505060405180910390a35b5050565b60008060006135148585613b67565b601760008581526020019081526020016000205492506135806001601660008873ffffffffffffffffffffffffffffffffffffffff1673ffffffffffffffffffffffffffffffffffffffff1681526020019081526020016000208054905061385e90919063ffffffff16565b9150601660008673ffffffffffffffffffffffffffffffffffffffff1673ffffffffffffffffffffffffffffffffffffffff168152602001908152602001600020828154811015156135ce57fe5b906000526020600020900154905080601660008773ffffffffffffffffffffffffffffffffffffffff1673ffffffffffffffffffffffffffffffffffffffff1681526020019081526020016000208481548110151561362957fe5b9060005260206000209001819055506000601660008773ffffffffffffffffffffffffffffffffffffffff1673ffffffffffffffffffffffffffffffffffffffff1681526020019081526020016000208381548110151561368657fe5b906000526020600020900181905550601660008673ffffffffffffffffffffffffffffffffffffffff1673ffffffffffffffffffffffffffffffffffffffff1681526020019081526020016000208054809190600190036136e79190613f6c565b50600060176000868152602001908152602001600020819055508260176000838152602001908152602001600020819055505050505050565b600061372c8383613c95565b601660008473ffffffffffffffffffffffffffffffffffffffff1673ffffffffffffffffffffffffffffffffffffffff168152602001908152602001600020805490509050601660008473ffffffffffffffffffffffffffffffffffffffff1673ffffffffffffffffffffffffffffffffffffffff16815260200190815260200160002080548060010182816137c29190613f98565b916000526020600020900160008490919091505550806017600084815260200190815260200160002081905550505050565b6000818301905082811015151561380757fe5b80905092915050565b6000808314156138235760009050613842565b818302905081838281151561383457fe5b0414151561383e57fe5b8090505b92915050565b6000818381151561385557fe5b04905092915050565b600082821115151561386c57fe5b818303905092915050565b6000806000429250600091505b8382101561390057603283600f54840101604051808281526020019150506040518091039020600190048115156138b757fe5b06905060016005838115156138c857fe5b0614156138e3576032600f548115156138dd57fe5b06810190505b6138f38560188054905083613ae0565b8180600101925050613884565b83600f600082825401925050819055505050505050565b6000806139398573ffffffffffffffffffffffffffffffffffffffff16613ded565b15156139485760019150613ad7565b8473ffffffffffffffffffffffffffffffffffffffff1663f0b9e5ba8786866040518463ffffffff167c0100000000000000000000000000000000000000000000000000000000028152600401808473ffffffffffffffffffffffffffffffffffffffff1673ffffffffffffffffffffffffffffffffffffffff16815260200183815260200180602001828103825283818151815260200191508051906020019080838360005b83811015613a0a5780820151818401526020810190506139ef565b50505050905090810190601f168015613a375780820380516001836020036101000a031916815260200191505b50945050505050602060405180830381600087803b1515613a5757600080fd5b5af11515613a6457600080fd5b50505060405180519050905063f0b9e5ba7c0100000000000000000000000000000000000000000000000000000000027bffffffffffffffffffffffffffffffffffffffffffffffffffffffff1916817bffffffffffffffffffffffffffffffffffffffffffffffffffffffff19161491505b50949350505050565b601054601880549050101515613af557600080fd5b613aff8383613e00565b601880549050601960008481526020019081526020016000208190555080601a600060188054905081526020019081526020016000208190555060188054806001018281613b4d9190613f98565b916000526020600020900160008490919091505550505050565b8173ffffffffffffffffffffffffffffffffffffffff16613b87826121af565b73ffffffffffffffffffffffffffffffffffffffff16141515613ba957600080fd5b613bfc6001600260008573ffffffffffffffffffffffffffffffffffffffff1673ffffffffffffffffffffffffffffffffffffffff1681526020019081526020016000205461385e90919063ffffffff16565b600260008473ffffffffffffffffffffffffffffffffffffffff1673ffffffffffffffffffffffffffffffffffffffff16815260200190815260200160002081905550600080600083815260200190815260200160002060006101000a81548173ffffffffffffffffffffffffffffffffffffffff021916908373ffffffffffffffffffffffffffffffffffffffff1602179055505050565b600073ffffffffffffffffffffffffffffffffffffffff1660008083815260200190815260200160002060009054906101000a900473ffffffffffffffffffffffffffffffffffffffff1673ffffffffffffffffffffffffffffffffffffffff16141515613d0257600080fd5b8160008083815260200190815260200160002060006101000a81548173ffffffffffffffffffffffffffffffffffffffff021916908373ffffffffffffffffffffffffffffffffffffffff160217905550613da66001600260008573ffffffffffffffffffffffffffffffffffffffff1673ffffffffffffffffffffffffffffffffffffffff168152602001908152602001600020546137f490919063ffffffff16565b600260008473ffffffffffffffffffffffffffffffffffffffff1673ffffffffffffffffffffffffffffffffffffffff168152602001908152602001600020819055505050565b600080823b905060008111915050919050565b600073ffffffffffffffffffffffffffffffffffffffff168273ffffffffffffffffffffffffffffffffffffffff1614151515613e3c57600080fd5b613e468282613720565b8173ffffffffffffffffffffffffffffffffffffffff16600073ffffffffffffffffffffffffffffffffffffffff167fddf252ad1be2c89b69c2b068fc378daa952ba7f163c4a11628f55a4df523b3ef836040518082815260200191505060405180910390a35050565b602060405190810160405280600081525090565b828054600181600116156101000203166002900490600052602060002090601f016020900481019282601f10613f0557805160ff1916838001178555613f33565b82800160010185558215613f33579182015b82811115613f32578251825591602001919060010190613f17565b5b509050613f409190613fc4565b5090565b602060405190810160405280600081525090565b602060405190810160405280600081525090565b815481835581811511613f9357818360005260206000209182019101613f929190613fc4565b5b505050565b815481835581811511613fbf57818360005260206000209182019101613fbe9190613fc4565b5b505050565b613fe691905b80821115613fe2576000816000905550600101613fca565b5090565b90565b600073ffffffffffffffffffffffffffffffffffffffff168273ffffffffffffffffffffffffffffffffffffffff161415151561402557600080fd5b60008111151561403457600080fd5b6000600760008473ffffffffffffffffffffffffffffffffffffffff1673ffffffffffffffffffffffffffffffffffffffff1681526020019081526020016000205414151561408257600080fd5b600980548060010182816140969190614148565b9160005260206000209001600084909190916101000a81548173ffffffffffffffffffffffffffffffffffffffff021916908373ffffffffffffffffffffffffffffffffffffffff1602179055505080600760008473ffffffffffffffffffffffffffffffffffffffff1673ffffffffffffffffffffffffffffffffffffffff1681526020019081526020016000208190555061413e816005546137f490919063ffffffff16565b6005819055505050565b81548183558181151161416f5781836000526020600020918201910161416e9190613fc4565b5b5050505600a165627a7a723058207c4c0f12ce4f0bc4cb36957f5d67123e7c4bd860214d157cc6ae09121a082ef10029",
  "source": "pragma solidity ^0.4.21;\n\nimport \"./ERC721.sol\";\nimport \"./ERC721BasicToken.sol\";\nimport \"./AccessControl.sol\";\nimport \"./Lockable.sol\";\n\n\n/**\n * @title Full ERC721 Token\n * This implementation includes all the required and some optional functionality of the ERC721 standard\n * Moreover, it includes approve all functionality using operator terminology\n * @dev see https://github.com/ethereum/EIPs/blob/master/EIPS/eip-721.md\n */\ncontract DarkWindsFirstEdition is ERC721, ERC721BasicToken, AccessControl, Lockable {\n    using SafeMath for uint256;\n    using AddressUtils for address;\n\n    // Emitted when a booster pack is purchased\n    // event BoosterPurchase(address indexed _from, address indexed _to, uint256 _amount);\n\n    // Emitted when a booster pack is transferred\n    // event BoosterTransfer(address indexed _from, address indexed _to, uint256 _amount);\n\n    // Emitted when a booster pack is opened\n    // event BoosterOpen(address indexed _owner, uint256 _amount);\n\n    // Card cost\n    uint256 public cost = 1 finney;\n\n    // Nonce used to card generation\n    uint256 internal nonce = 1;\n\n    // Maximum amount of cards\n    uint256 internal maxCards = 1000000;\n\n    // Number of allocated tokens including wrapped boosters\n    uint256 internal allocatedTokens_ = 0;\n\n    // Token name\n    string internal name_ = \"Dark Winds First Edition Cards (Revisited)\";\n\n    // Token symbol\n    string internal symbol_ = \"DW1STR\";\n\n    // Base tokenURI\n    string internal tokenURI_ = \"https://corsarium.playdarkwinds.com/cards/00000.json\";\n\n    // Base uriIndex to modify the URI\n    uint256 internal uriIndex_ = 42;\n\n    // Mapping from owner to list of owned token IDs\n    mapping(address => uint256[]) internal ownedTokens;\n\n    // Mapping from token ID to index of the owner tokens list\n    mapping(uint256 => uint256) internal ownedTokensIndex;\n\n    // Array with all token ids, used for enumeration\n    uint256[] internal allTokens;\n\n    // Mapping from token id to position in the allTokens array\n    mapping(uint256 => uint256) internal allTokensIndex;\n\n    // Mapping to card prototype\n    mapping(uint256 => uint256) internal tokenToCardIndex;\n\n    // Mapping to wrapped booster packs\n    mapping(address => uint256[]) internal wrappedBoosters;\n\n    // @dev don't accept straight eth (normally comes with low gas)\n    function () public payable {\n        revert();\n    }\n\n    /**\n     * @dev Constructor function\n     * TODO: This doesn't work well with AccessControl.sol because of the hardcoded values in there\n     */\n    function DarkWindsFirstEdition(address[] _payees, uint256[] _shares) SplitPayment(_payees, _shares) public {\n\n    }\n\n    /**\n     * @dev gets the number of allocated tokens\n     * @return uint256 of the number of allocated tokens\n     */\n    function allocatedTokens() public view returns (uint256) {\n        return allocatedTokens_;\n    }\n\n    /**\n     * @dev Gets the token name\n     * @return string representing the token name\n     */\n    function name() public view returns (string) {\n        return name_;\n    }\n\n    /**\n     * @dev Gets the token symbol\n     * @return string representing the token symbol\n     */\n    function symbol() public view returns (string) {\n        return symbol_;\n    }\n\n    /**\n     * @dev Gets the base tokenURI\n     * @return string, uint256 representing the tokenURI and tokenURI index\n     */\n    function tokenUri() public view returns (string, uint256) {\n        return (tokenURI_, uriIndex_);\n    }\n\n    /**\n     * @dev Returns an URI for a given token ID\n     * @dev Throws if the token ID does not exist. May return an empty string.\n     * @param _tokenId uint256 ID of the token to query\n     */\n    function tokenURI(uint256 _tokenId) public view returns (string) {\n        require(_tokenId < allTokens.length);\n        bytes memory tokenUriBytes = bytes(tokenURI_);\n        tokenUriBytes[uriIndex_]              = byte(48 + (tokenToCardIndex[_tokenId] / 10000) % 10);\n        tokenUriBytes[uriIndex_ + uint256(1)] = byte(48 + (tokenToCardIndex[_tokenId] / 1000) % 10);\n        tokenUriBytes[uriIndex_ + uint256(2)] = byte(48 + (tokenToCardIndex[_tokenId] / 100) % 10);\n        tokenUriBytes[uriIndex_ + uint256(3)] = byte(48 + (tokenToCardIndex[_tokenId] / 10) % 10);\n        tokenUriBytes[uriIndex_ + uint256(4)] = byte(48 + (tokenToCardIndex[_tokenId] / 1) % 10);\n        return string(tokenUriBytes);\n    }\n\n    /**\n     * @dev Gets the token ID at a given index of the tokens list of the requested owner\n     * @param _owner address owning the tokens list to be accessed\n     * @param _index uint256 representing the index to be accessed of the requested tokens list\n     * @return uint256 token ID at the given index of the tokens list owned by the requested address\n     */\n    function tokenOfOwnerByIndex(address _owner, uint256 _index) public view returns (uint256) {\n        require(_index < balanceOf(_owner));\n        return ownedTokens[_owner][_index];\n    }\n\n    /**\n     * @dev Gets the total amount of tokens stored by the contract\n     * @return uint256 representing the total amount of tokens\n     */\n    function totalSupply() public view returns (uint256) {\n        return allTokens.length;\n    }\n\n    /**\n     * @dev Gets the token ID at a given index of all the tokens in this contract\n     * @dev Reverts if the index is greater or equal to the total number of tokens\n     * @param _index uint256 representing the index to be accessed of the tokens list\n     * @return uint256 token ID at the given index of the tokens list\n     */\n    function tokenByIndex(uint256 _index) public view returns (uint256) {\n        require(_index < totalSupply());\n        return allTokens[_index];\n    }\n\n    /**\n     * @dev Function to set the overall tokenURI_ and uriIndex_\n     * @param _uri string URI to assign\n     * @param _uriIndex URI index to assign\n     */\n    function setTokenURI(string _uri, uint256 _uriIndex) onlyMegoOrTeam public {\n        tokenURI_ = _uri;\n        uriIndex_ = _uriIndex;\n    }\n\n    /**\n     * @dev Internal function to add a token ID to the list of a given address\n     * @param _to address representing the new owner of the given token ID\n     * @param _tokenId uint256 ID of the token to be added to the tokens list of the given address\n     */\n    function addTokenTo(address _to, uint256 _tokenId) internal {\n        super.addTokenTo(_to, _tokenId);\n        uint256 length = ownedTokens[_to].length;\n        ownedTokens[_to].push(_tokenId);\n        ownedTokensIndex[_tokenId] = length;\n    }\n\n    /**\n     * @dev Internal function to remove a token ID from the list of a given address\n     * @param _from address representing the previous owner of the given token ID\n     * @param _tokenId uint256 ID of the token to be removed from the tokens list of the given address\n     */\n    function removeTokenFrom(address _from, uint256 _tokenId) internal {\n        super.removeTokenFrom(_from, _tokenId);\n\n        uint256 tokenIndex = ownedTokensIndex[_tokenId];\n        uint256 lastTokenIndex = ownedTokens[_from].length.sub(1);\n        uint256 lastToken = ownedTokens[_from][lastTokenIndex];\n\n        ownedTokens[_from][tokenIndex] = lastToken;\n        ownedTokens[_from][lastTokenIndex] = 0;\n        // Note that this will handle single-element arrays. In that case, both tokenIndex and lastTokenIndex are going to\n        // be zero. Then we can make sure that we will remove _tokenId from the ownedTokens list since we are first swapping\n        // the lastToken to the first position, and then dropping the element placed in the last position of the list\n\n        ownedTokens[_from].length--;\n        ownedTokensIndex[_tokenId] = 0;\n        ownedTokensIndex[lastToken] = tokenIndex;\n    }\n\n    /**\n     * @dev Internal function to mint a new token\n     * @dev Reverts if the given token ID already exists\n     * @param _to address the beneficiary that will own the minted token\n     * @param _tokenId uint256 ID of the token to be minted by the msg.sender\n     * @param _prototypeId uint256 ID of the prototype of the token to be minted by the msg.sender\n     */\n    function _mint(address _to, uint256 _tokenId, uint256 _prototypeId) internal {\n        // Make sure we don't allocate more tokens then max, tokens start at index 0\n        require(allTokens.length < maxCards);\n\n        super._mint(_to, _tokenId);\n\n        allTokensIndex[_tokenId] = allTokens.length;\n\n        // Add the custom prototype to the tokenToCardIndex\n        tokenToCardIndex[allTokens.length] = _prototypeId;\n\n        // This updates the length / total supply\n        allTokens.push(_tokenId);\n    }\n\n    /**\n      * @dev view to get all tokenIds of a specific user\n      * @param _owner address of the owner to get tokens for\n      * @return uint256[] tokenIds of owner's tokens\n      */\n    function tokensOfOwner(address _owner) external view returns (uint256[]) {\n        return ownedTokens[_owner];\n    }\n\n    /**\n     * @dev function to update the cost of a single token\n     * @param _newCost the new cost of a card in wei\n     */\n    function changeCardCost(uint256 _newCost) onlyMegoOrTeam public {\n        cost = _newCost;\n    }\n\n    /**\n     * @dev function to give a user cards before the contract is locked\n     *      only used the whenNotLocked modifier so that you can pause the contract and still add cards\n     *      before locking.\n     * @param _to address to give a card\n     * @param _prototypeIds array of prototype ids to give a user\n     */\n    function giveUserCards(address _to, uint256[] _prototypeIds) onlyMegoOrTeam whenNotLocked public {\n        require(_to != address(0));\n        require((allocatedTokens_ + _prototypeIds.length) < maxCards);\n        for (uint256 i = 0; i < _prototypeIds.length; i++) {\n            _mint(_to, allTokens.length, _prototypeIds[i]);\n        }\n        allocatedTokens_ += _prototypeIds.length;\n    }\n\n    /**\n     * @dev @dev public function to buy tokens in relation to the value of the transaction\n     */\n    function buyBoosterPack() public payable whenNotPaused {\n        return buyBoosterForFriend(msg.sender);\n    }\n\n    /**\n     * @dev public function to buy tokens in relation to the value of the transaction\n     * @param _toAddress address to purchase tokens\n     */\n    function buyBoosterForFriend(address _toAddress) public payable whenNotPaused {\n        // Don't allow users to buy for the null address\n        require(_toAddress != address(0));\n\n        uint256 amount = msg.value / cost;\n\n        // Make sure a user can buy this many cards in the current state\n        require((allocatedTokens_ + amount) < maxCards);\n\n        // Add the amount purchased to the amount of allocatedTokens_\n        allocatedTokens_ += amount;\n\n        _mintAmount(_toAddress, amount);\n    }\n\n    /**\n      * @dev gets all the current boosters for a particular owner\n      * @param _owner address of the owner of the booster packs\n      * @return uint256[] array of amount of cards in each booster pack a user owns.\n      */\n    /* function getBoosterAmounts(address _owner) public view returns (uint256[]) {\n        return wrappedBoosters[_owner];\n    } */\n\n    /**\n      * @dev gets all the current boosters for a particular owner\n      * @param _owner address of the owner of the booster packs\n      * @return uint256[] array of amount of cards in each booster pack a user owns.\n      */\n    /* function getBoosterAmountForIndex(address _owner, uint256 _index) public view returns (uint256) {\n        require(_index < wrappedBoosters[_owner].length);\n        return wrappedBoosters[_owner][_index];\n    } */\n\n    /**\n     * @dev public function to transfer a purchased wrapped booster to another user\n     * @param _to address to transfer booster to\n     * @param _index of the booster to transfer\n     */\n    /* function transferWrappedBooster(address _to, uint256 _index) public whenNotPaused {\n        // Not sending the booster to the zero address\n        require(_to != address(0));\n\n        // Make sure the person is not sending to themselves\n        require(_to != msg.sender);\n\n        // Make sure the index is within range\n        require(_index < wrappedBoosters[msg.sender].length);\n\n        uint256 amount = wrappedBoosters[msg.sender][_index];\n\n        // Remove the booster from the array by shifting left\n        for (uint256 i = _index; i < wrappedBoosters[msg.sender].length - 1; i++) {\n            wrappedBoosters[msg.sender][i] = wrappedBoosters[msg.sender][i + 1];\n        }\n\n        // decrease booster array's size\n        wrappedBoosters[msg.sender].length--;\n\n        // Add a booster to the _toAddress\n        wrappedBoosters[_to].push(amount);\n\n        emit BoosterTransfer(msg.sender, _to, amount);\n    } */\n\n    /**\n     * @dev buys a wrapped booster pack that can be opened at a later date\n     */\n    /* function buyWrappedBooster() public payable whenNotPaused {\n        buyWrappedBoosterForFriend(msg.sender);\n    } */\n\n    /**\n     * @dev buys a wrapped booster pack for a user at a particular address\n     * @param _toAddress address to purchase the wrapped booster pack for\n     */\n    /* function buyWrappedBoosterForFriend(address _toAddress) public payable whenNotPaused {\n        // Don't allow users to buy for the null address\n        require(_toAddress != address(0));\n\n        uint256 amount = msg.value / cost;\n\n        // Make sure a user can buy this many cards in the current state\n        require((allocatedTokens_ + amount) < maxCards);\n\n        // Add a booster to the _toAddress\n        wrappedBoosters[_toAddress].push(amount);\n\n        // Add the amount purchased to the amount of allocatedTokens_\n        allocatedTokens_ += amount;\n\n        emit BoosterPurchase(msg.sender, _toAddress, amount);\n    } */\n\n    /**\n     * @dev opens a wrapped booster pack for a user at a particular address\n     *      prefer opening from the last index when possible.\n     * @param _index of the booster pack for a user to open\n     */\n    /* function openWrappedBooster(uint256 _index) public whenNotPaused {\n        // Make sure the index is correct for the caller\n        require(_index < wrappedBoosters[msg.sender].length);\n\n        // Store the amount of cards to unwrap\n        uint256 amount = wrappedBoosters[msg.sender][_index];\n\n        // Remove the booster from the array by shifting left\n        // Not the best depending on array's size -> could use extra data stucts\n        // to reduce the cost when claiming, but increase the gas costs while purchasing\n        for (uint256 i = _index; i < wrappedBoosters[msg.sender].length - 1; i++) {\n            wrappedBoosters[msg.sender][i] = wrappedBoosters[msg.sender][i + 1];\n        }\n\n        // decrease booster array's size\n        wrappedBoosters[msg.sender].length--;\n\n        emit BoosterOpen(msg.sender, amount);\n\n        _mintAmount(msg.sender, amount);\n    } */\n\n    /**\n      * @dev generates the prototypeIds for the given amount of cards\n      * @param _to address to mint the prototype ids for\n      * @param _amount uint256 the amount of cards to generate\n      */\n    function _mintAmount(address _to, uint256 _amount) internal {\n        uint256 blockNumber = block.timestamp;\n        for (uint256 i = 0; i < _amount; i++) {\n            uint256 prototypeId = uint256(keccak256(i + nonce + blockNumber)) % 50;\n            if (i % 5 == 1) {\n                prototypeId += (nonce % 50);\n            }\n            _mint(_to, allTokens.length, prototypeId);\n        }\n        nonce += _amount;\n    }\n\n    /**\n     * @dev View to get the prototype of a cards for an owner\n     * @param _tokenId the tokenId to get the prototype of\n     * @return uint256 prototypeId at the tokenId\n     */\n    function getCard(uint _tokenId) public view returns (uint256) {\n        require(_tokenId < allTokens.length);\n        // In the case that there aren't sequential cardIds in the future\n        uint256 tokenIndex = allTokensIndex[_tokenId];\n        return tokenToCardIndex[tokenIndex];\n    }\n\n    /**\n     * @dev View to get the prototypes of cards for an owner\n     * @param _owner address of which to get the tokens list\n     * @return uint256 token ID at the given index of the tokens list\n     */\n    function cardsOfOwner(address _owner) external view returns (uint256[]) {\n        uint256 totalLength = ownedTokens[_owner].length;\n        uint256[] memory cardPrototypes = new uint256[](totalLength);\n        for(uint256 i = 0; i < totalLength; i++) {\n            uint256 index = ownedTokens[_owner][i];\n            cardPrototypes[i] = getCard(index);\n        }\n        return cardPrototypes;\n    }\n\n    /**\n     * @dev view to get the prototypes of all cards\n     * @return uint256[] prototypes of all cards\n     */\n    function cardSupply() external view returns (uint256[]) {\n        uint256 totalLength = allTokens.length;\n        uint256[] memory cardPrototypes = new uint256[](totalLength);\n        for(uint256 i = 0; i < allTokens.length; i++) {\n            cardPrototypes[i] = getCard(allTokens[i]);\n        }\n        return cardPrototypes;\n    }\n}\n",
  "sourcePath": "/Users/andrew/Programs/darkwinds/contracts/DarkWindsFirstEdition.sol",
  "compiler": {
    "name": "solc",
    "version": "0.4.21+commit.dfe3193c.Emscripten.clang"
  },
  "schemaVersion": "2.0.0",
  "updatedAt": "2018-04-26T05:59:15.402Z"
}