{
  "contractName": "PausableMock",
  "abi": [
    {
      "constant": true,
      "inputs": [],
      "name": "count",
      "outputs": [
        {
          "name": "",
          "type": "uint256"
        }
      ],
      "payable": false,
      "stateMutability": "view",
      "type": "function"
    },
    {
      "constant": true,
      "inputs": [
        {
          "name": "",
          "type": "uint256"
        }
      ],
      "name": "teamAddresses",
      "outputs": [
        {
          "name": "",
          "type": "address"
        }
      ],
      "payable": false,
      "stateMutability": "view",
      "type": "function"
    },
    {
      "constant": true,
      "inputs": [],
      "name": "publisherAddress",
      "outputs": [
        {
          "name": "",
          "type": "address"
        }
      ],
      "payable": false,
      "stateMutability": "view",
      "type": "function"
    },
    {
      "constant": true,
      "inputs": [],
      "name": "totalShares",
      "outputs": [
        {
          "name": "",
          "type": "uint256"
        }
      ],
      "payable": false,
      "stateMutability": "view",
      "type": "function"
    },
    {
      "constant": false,
      "inputs": [],
      "name": "unpause",
      "outputs": [],
      "payable": false,
      "stateMutability": "nonpayable",
      "type": "function"
    },
    {
      "constant": false,
      "inputs": [],
      "name": "claim",
      "outputs": [],
      "payable": false,
      "stateMutability": "nonpayable",
      "type": "function"
    },
    {
      "constant": true,
      "inputs": [],
      "name": "paused",
      "outputs": [
        {
          "name": "",
          "type": "bool"
        }
      ],
      "payable": false,
      "stateMutability": "view",
      "type": "function"
    },
    {
      "constant": true,
      "inputs": [
        {
          "name": "",
          "type": "uint256"
        }
      ],
      "name": "payees",
      "outputs": [
        {
          "name": "",
          "type": "address"
        }
      ],
      "payable": false,
      "stateMutability": "view",
      "type": "function"
    },
    {
      "constant": true,
      "inputs": [],
      "name": "drasticMeasureTaken",
      "outputs": [
        {
          "name": "",
          "type": "bool"
        }
      ],
      "payable": false,
      "stateMutability": "view",
      "type": "function"
    },
    {
      "constant": false,
      "inputs": [],
      "name": "pause",
      "outputs": [],
      "payable": false,
      "stateMutability": "nonpayable",
      "type": "function"
    },
    {
      "constant": true,
      "inputs": [],
      "name": "owner",
      "outputs": [
        {
          "name": "",
          "type": "address"
        }
      ],
      "payable": false,
      "stateMutability": "view",
      "type": "function"
    },
    {
      "constant": true,
      "inputs": [
        {
          "name": "",
          "type": "address"
        }
      ],
      "name": "released",
      "outputs": [
        {
          "name": "",
          "type": "uint256"
        }
      ],
      "payable": false,
      "stateMutability": "view",
      "type": "function"
    },
    {
      "constant": true,
      "inputs": [
        {
          "name": "",
          "type": "address"
        }
      ],
      "name": "shares",
      "outputs": [
        {
          "name": "",
          "type": "uint256"
        }
      ],
      "payable": false,
      "stateMutability": "view",
      "type": "function"
    },
    {
      "constant": true,
      "inputs": [],
      "name": "megoAddress",
      "outputs": [
        {
          "name": "",
          "type": "address"
        }
      ],
      "payable": false,
      "stateMutability": "view",
      "type": "function"
    },
    {
      "constant": true,
      "inputs": [],
      "name": "totalReleased",
      "outputs": [
        {
          "name": "",
          "type": "uint256"
        }
      ],
      "payable": false,
      "stateMutability": "view",
      "type": "function"
    },
    {
      "constant": false,
      "inputs": [
        {
          "name": "newOwner",
          "type": "address"
        }
      ],
      "name": "transferOwnership",
      "outputs": [],
      "payable": false,
      "stateMutability": "nonpayable",
      "type": "function"
    },
    {
      "inputs": [
        {
          "name": "_payees",
          "type": "address[]"
        },
        {
          "name": "_shares",
          "type": "uint256[]"
        }
      ],
      "payable": false,
      "stateMutability": "nonpayable",
      "type": "constructor"
    },
    {
      "payable": true,
      "stateMutability": "payable",
      "type": "fallback"
    },
    {
      "anonymous": false,
      "inputs": [],
      "name": "Pause",
      "type": "event"
    },
    {
      "anonymous": false,
      "inputs": [],
      "name": "Unpause",
      "type": "event"
    },
    {
      "anonymous": false,
      "inputs": [
        {
          "indexed": true,
          "name": "previousOwner",
          "type": "address"
        },
        {
          "indexed": true,
          "name": "newOwner",
          "type": "address"
        }
      ],
      "name": "OwnershipTransferred",
      "type": "event"
    },
    {
      "constant": false,
      "inputs": [],
      "name": "normalProcess",
      "outputs": [],
      "payable": false,
      "stateMutability": "nonpayable",
      "type": "function"
    },
    {
      "constant": false,
      "inputs": [],
      "name": "drasticMeasure",
      "outputs": [],
      "payable": false,
      "stateMutability": "nonpayable",
      "type": "function"
    }
  ],
  "bytecode": "0x606060405260006001556000600255734ab6c984e72cbab4162429721839d72b188010e3600660006101000a81548173ffffffffffffffffffffffffffffffffffffffff021916908373ffffffffffffffffffffffffffffffffffffffff16021790555072c0bca70eaaadf21a158141ec7ea699a17d63ed600760006101000a81548173ffffffffffffffffffffffffffffffffffffffff021916908373ffffffffffffffffffffffffffffffffffffffff16021790555060e060405190810160405280734978faf663a3f1a6c74accccbd63294efec6462473ffffffffffffffffffffffffffffffffffffffff1673ffffffffffffffffffffffffffffffffffffffff16815260200173772009e69b051879e1a5255d9af00723df9a6e0473ffffffffffffffffffffffffffffffffffffffff1673ffffffffffffffffffffffffffffffffffffffff16815260200173a464b05832a72a1a47ace2be18635e3a4c9a240a73ffffffffffffffffffffffffffffffffffffffff1673ffffffffffffffffffffffffffffffffffffffff16815260200173d450fcbfbb75cdaeb65693849a6eff0c2976026f73ffffffffffffffffffffffffffffffffffffffff1673ffffffffffffffffffffffffffffffffffffffff16815260200173d129bbf705dc91f50c5d9b44749507f458a733c873ffffffffffffffffffffffffffffffffffffffff1673ffffffffffffffffffffffffffffffffffffffff16815260200173fdc2ad68fd1ef5341a442d0e2fc8b974e273ac1673ffffffffffffffffffffffffffffffffffffffff1673ffffffffffffffffffffffffffffffffffffffff168152602001734ab6c984e72cbab4162429721839d72b188010e373ffffffffffffffffffffffffffffffffffffffff1673ffffffffffffffffffffffffffffffffffffffff168152506008906007620002bd9291906200058d565b506000600960006101000a81548160ff0219169083151502179055503415620002e557600080fd5b604051620014f7380380620014f78339810160405280805182019190602001805182019190505081816000336000806101000a81548173ffffffffffffffffffffffffffffffffffffffff021916908373ffffffffffffffffffffffffffffffffffffffff160217905550815183511415156200036157600080fd5b600090505b8251811015620003ce57620003c083828151811015156200038357fe5b9060200190602002015183838151811015156200039c57fe5b90602001906020020151620003fc6401000000000262000c52176401000000009004565b808060010191505062000366565b5050506000600960016101000a81548160ff0219169083151502179055506000600a819055505050620006b9565b600073ffffffffffffffffffffffffffffffffffffffff168273ffffffffffffffffffffffffffffffffffffffff16141515156200043957600080fd5b6000811115156200044957600080fd5b6000600360008473ffffffffffffffffffffffffffffffffffffffff1673ffffffffffffffffffffffffffffffffffffffff168152602001908152602001600020541415156200049857600080fd5b60058054806001018281620004ae91906200061c565b9160005260206000209001600084909190916101000a81548173ffffffffffffffffffffffffffffffffffffffff021916908373ffffffffffffffffffffffffffffffffffffffff1602179055505080600360008473ffffffffffffffffffffffffffffffffffffffff1673ffffffffffffffffffffffffffffffffffffffff168152602001908152602001600020819055506200056681600154620005706401000000000262000bcf179091906401000000009004565b6001819055505050565b600081830190508281101515156200058457fe5b80905092915050565b82805482825590600052602060002090810192821562000609579160200282015b82811115620006085782518260006101000a81548173ffffffffffffffffffffffffffffffffffffffff021916908373ffffffffffffffffffffffffffffffffffffffff16021790555091602001919060010190620005ae565b5b5090506200061891906200064b565b5090565b815481835581811511620006465781836000526020600020918201910162000645919062000691565b5b505050565b6200068e91905b808211156200068a57600081816101000a81549073ffffffffffffffffffffffffffffffffffffffff02191690555060010162000652565b5090565b90565b620006b691905b80821115620006b257600081600090555060010162000698565b5090565b90565b610e2e80620006c96000396000f3006060604052600436106100fc576000357c0100000000000000000000000000000000000000000000000000000000900463ffffffff16806306661abd146100fe5780632419217e1461012757806336516a8a1461018a5780633a98ef39146101df5780633f4ba83a146102085780634e71d92d1461021d5780635c975abb1461023257806363037b0c1461025f57806376657b8e146102c25780638456cb59146102ef5780638da5cb5b146103045780639852595c146103595780639958f045146103a6578063ce7c2ac2146103bb578063e1479d0714610408578063e33b7de31461045d578063e7651d7a14610486578063f2fde38b1461049b575b005b341561010957600080fd5b6101116104d4565b6040518082815260200191505060405180910390f35b341561013257600080fd5b61014860048080359060200190919050506104da565b604051808273ffffffffffffffffffffffffffffffffffffffff1673ffffffffffffffffffffffffffffffffffffffff16815260200191505060405180910390f35b341561019557600080fd5b61019d610519565b604051808273ffffffffffffffffffffffffffffffffffffffff1673ffffffffffffffffffffffffffffffffffffffff16815260200191505060405180910390f35b34156101ea57600080fd5b6101f261053f565b6040518082815260200191505060405180910390f35b341561021357600080fd5b61021b610545565b005b341561022857600080fd5b610230610604565b005b341561023d57600080fd5b61024561086c565b604051808215151515815260200191505060405180910390f35b341561026a57600080fd5b610280600480803590602001909190505061087f565b604051808273ffffffffffffffffffffffffffffffffffffffff1673ffffffffffffffffffffffffffffffffffffffff16815260200191505060405180910390f35b34156102cd57600080fd5b6102d56108be565b604051808215151515815260200191505060405180910390f35b34156102fa57600080fd5b6103026108d1565b005b341561030f57600080fd5b610317610991565b604051808273ffffffffffffffffffffffffffffffffffffffff1673ffffffffffffffffffffffffffffffffffffffff16815260200191505060405180910390f35b341561036457600080fd5b610390600480803573ffffffffffffffffffffffffffffffffffffffff169060200190919050506109b6565b6040518082815260200191505060405180910390f35b34156103b157600080fd5b6103b96109ce565b005b34156103c657600080fd5b6103f2600480803573ffffffffffffffffffffffffffffffffffffffff16906020019091905050610a06565b6040518082815260200191505060405180910390f35b341561041357600080fd5b61041b610a1e565b604051808273ffffffffffffffffffffffffffffffffffffffff1673ffffffffffffffffffffffffffffffffffffffff16815260200191505060405180910390f35b341561046857600080fd5b610470610a44565b6040518082815260200191505060405180910390f35b341561049157600080fd5b610499610a4a565b005b34156104a657600080fd5b6104d2600480803573ffffffffffffffffffffffffffffffffffffffff16906020019091905050610a7a565b005b600a5481565b6008818154811015156104e957fe5b90600052602060002090016000915054906101000a900473ffffffffffffffffffffffffffffffffffffffff1681565b600760009054906101000a900473ffffffffffffffffffffffffffffffffffffffff1681565b60015481565b6000809054906101000a900473ffffffffffffffffffffffffffffffffffffffff1673ffffffffffffffffffffffffffffffffffffffff163373ffffffffffffffffffffffffffffffffffffffff161415156105a057600080fd5b600960009054906101000a900460ff1615156105bb57600080fd5b6000600960006101000a81548160ff0219169083151502179055507f7805862f689e2f13df9f062ff482ad3ad112aca9e0847911ed832e158c525b3360405160405180910390a1565b60008060003392506000600360008573ffffffffffffffffffffffffffffffffffffffff1673ffffffffffffffffffffffffffffffffffffffff1681526020019081526020016000205411151561065a57600080fd5b6106866002543073ffffffffffffffffffffffffffffffffffffffff1631610bcf90919063ffffffff16565b915061073f600460008573ffffffffffffffffffffffffffffffffffffffff1673ffffffffffffffffffffffffffffffffffffffff16815260200190815260200160002054610731600154610723600360008973ffffffffffffffffffffffffffffffffffffffff1673ffffffffffffffffffffffffffffffffffffffff1681526020019081526020016000205487610beb90919063ffffffff16565b610c2390919063ffffffff16565b610c3990919063ffffffff16565b90506000811415151561075157600080fd5b803073ffffffffffffffffffffffffffffffffffffffff16311015151561077757600080fd5b6107c981600460008673ffffffffffffffffffffffffffffffffffffffff1673ffffffffffffffffffffffffffffffffffffffff16815260200190815260200160002054610bcf90919063ffffffff16565b600460008573ffffffffffffffffffffffffffffffffffffffff1673ffffffffffffffffffffffffffffffffffffffff1681526020019081526020016000208190555061082181600254610bcf90919063ffffffff16565b6002819055508273ffffffffffffffffffffffffffffffffffffffff166108fc829081150290604051600060405180830381858888f19350505050151561086757600080fd5b505050565b600960009054906101000a900460ff1681565b60058181548110151561088e57fe5b90600052602060002090016000915054906101000a900473ffffffffffffffffffffffffffffffffffffffff1681565b600960019054906101000a900460ff1681565b6000809054906101000a900473ffffffffffffffffffffffffffffffffffffffff1673ffffffffffffffffffffffffffffffffffffffff163373ffffffffffffffffffffffffffffffffffffffff1614151561092c57600080fd5b600960009054906101000a900460ff1615151561094857600080fd5b6001600960006101000a81548160ff0219169083151502179055507f6985a02210a168e66602d3235cb6db0e70f92b3ba4d376a33c0f3d9434bff62560405160405180910390a1565b6000809054906101000a900473ffffffffffffffffffffffffffffffffffffffff1681565b60046020528060005260406000206000915090505481565b600960009054906101000a900460ff1615156109e957600080fd5b6001600960016101000a81548160ff021916908315150217905550565b60036020528060005260406000206000915090505481565b600660009054906101000a900473ffffffffffffffffffffffffffffffffffffffff1681565b60025481565b600960009054906101000a900460ff16151515610a6657600080fd5b600a60008154809291906001019190505550565b6000809054906101000a900473ffffffffffffffffffffffffffffffffffffffff1673ffffffffffffffffffffffffffffffffffffffff163373ffffffffffffffffffffffffffffffffffffffff16141515610ad557600080fd5b600073ffffffffffffffffffffffffffffffffffffffff168173ffffffffffffffffffffffffffffffffffffffff1614151515610b1157600080fd5b8073ffffffffffffffffffffffffffffffffffffffff166000809054906101000a900473ffffffffffffffffffffffffffffffffffffffff1673ffffffffffffffffffffffffffffffffffffffff167f8be0079c531659141344cd1fd0a4f28419497f9722a3daafe3b4186f6b6457e060405160405180910390a3806000806101000a81548173ffffffffffffffffffffffffffffffffffffffff021916908373ffffffffffffffffffffffffffffffffffffffff16021790555050565b60008183019050828110151515610be257fe5b80905092915050565b600080831415610bfe5760009050610c1d565b8183029050818382811515610c0f57fe5b04141515610c1957fe5b8090505b92915050565b60008183811515610c3057fe5b04905092915050565b6000828211151515610c4757fe5b818303905092915050565b600073ffffffffffffffffffffffffffffffffffffffff168273ffffffffffffffffffffffffffffffffffffffff1614151515610c8e57600080fd5b600081111515610c9d57600080fd5b6000600360008473ffffffffffffffffffffffffffffffffffffffff1673ffffffffffffffffffffffffffffffffffffffff16815260200190815260200160002054141515610ceb57600080fd5b60058054806001018281610cff9190610db1565b9160005260206000209001600084909190916101000a81548173ffffffffffffffffffffffffffffffffffffffff021916908373ffffffffffffffffffffffffffffffffffffffff1602179055505080600360008473ffffffffffffffffffffffffffffffffffffffff1673ffffffffffffffffffffffffffffffffffffffff16815260200190815260200160002081905550610da781600154610bcf90919063ffffffff16565b6001819055505050565b815481835581811511610dd857818360005260206000209182019101610dd79190610ddd565b5b505050565b610dff91905b80821115610dfb576000816000905550600101610de3565b5090565b905600a165627a7a723058204e22f41a87e26588022a780009f4cae468d796545063a0f551cf48f9138ec1910029",
  "source": "pragma solidity ^0.4.21;\n\n\nimport \"../AccessControl.sol\";\n\n\n// mock class using Pausable\ncontract PausableMock is AccessControl {\n  bool public drasticMeasureTaken;\n  uint256 public count;\n\n  function PausableMock(address[] _payees, uint256[] _shares) SplitPayment(_payees, _shares) public {\n    drasticMeasureTaken = false;\n    count = 0;\n  }\n\n  function normalProcess() external whenNotPaused {\n    count++;\n  }\n\n  function drasticMeasure() external whenPaused {\n    drasticMeasureTaken = true;\n  }\n\n}\n",
  "sourcePath": "/Users/andrew/Programs/darkwinds/contracts/mocks/PausableMock.sol",
  "compiler": {
    "name": "solc",
    "version": "0.4.21+commit.dfe3193c.Emscripten.clang"
  },
  "schemaVersion": "2.0.0",
  "updatedAt": "2018-04-26T05:59:14.850Z"
}