{
  "contractName": "SafeMathMock",
  "abi": [
    {
      "constant": true,
      "inputs": [
        {
          "name": "a",
          "type": "uint256"
        },
        {
          "name": "b",
          "type": "uint256"
        }
      ],
      "name": "mul",
      "outputs": [
        {
          "name": "",
          "type": "uint256"
        }
      ],
      "payable": false,
      "stateMutability": "pure",
      "type": "function"
    },
    {
      "constant": true,
      "inputs": [
        {
          "name": "a",
          "type": "uint256"
        },
        {
          "name": "b",
          "type": "uint256"
        }
      ],
      "name": "div",
      "outputs": [
        {
          "name": "",
          "type": "uint256"
        }
      ],
      "payable": false,
      "stateMutability": "pure",
      "type": "function"
    },
    {
      "constant": true,
      "inputs": [
        {
          "name": "a",
          "type": "uint256"
        },
        {
          "name": "b",
          "type": "uint256"
        }
      ],
      "name": "sub",
      "outputs": [
        {
          "name": "",
          "type": "uint256"
        }
      ],
      "payable": false,
      "stateMutability": "pure",
      "type": "function"
    },
    {
      "constant": true,
      "inputs": [
        {
          "name": "a",
          "type": "uint256"
        },
        {
          "name": "b",
          "type": "uint256"
        }
      ],
      "name": "add",
      "outputs": [
        {
          "name": "",
          "type": "uint256"
        }
      ],
      "payable": false,
      "stateMutability": "pure",
      "type": "function"
    }
  ],
  "bytecode": "0x6060604052341561000f57600080fd5b6102668061001e6000396000f300606060405260043610610062576000357c0100000000000000000000000000000000000000000000000000000000900463ffffffff168063771602f714610067578063a391c15b146100a7578063b67d77c5146100e7578063c8a4ac9c14610127575b600080fd5b341561007257600080fd5b6100916004808035906020019091908035906020019091905050610167565b6040518082815260200191505060405180910390f35b34156100b257600080fd5b6100d1600480803590602001909190803590602001909190505061017b565b6040518082815260200191505060405180910390f35b34156100f257600080fd5b610111600480803590602001909190803590602001909190505061018f565b6040518082815260200191505060405180910390f35b341561013257600080fd5b61015160048080359060200190919080359060200190919050506101a3565b6040518082815260200191505060405180910390f35b600061017383836101b7565b905092915050565b600061018783836101d3565b905092915050565b600061019b83836101e9565b905092915050565b60006101af8383610202565b905092915050565b600081830190508281101515156101ca57fe5b80905092915050565b600081838115156101e057fe5b04905092915050565b60008282111515156101f757fe5b818303905092915050565b6000808314156102155760009050610234565b818302905081838281151561022657fe5b0414151561023057fe5b8090505b929150505600a165627a7a723058204b27c22f7663783347de4e2458360d011dd9964ac86ae6d60d528263a012cbb30029",
  "source": "pragma solidity ^0.4.21;\n\n\nimport \"../SafeMath.sol\";\n\n\ncontract SafeMathMock {\n\n  function mul(uint256 a, uint256 b) public pure returns (uint256) {\n    return SafeMath.mul(a, b);\n  }\n\n  function div(uint256 a, uint256 b) public pure returns (uint256) {\n    return SafeMath.div(a, b);\n  }\n\n  function sub(uint256 a, uint256 b) public pure returns (uint256) {\n    return SafeMath.sub(a, b);\n  }\n\n  function add(uint256 a, uint256 b) public pure returns (uint256) {\n    return SafeMath.add(a, b);\n  }\n}\n",
  "sourcePath": "/Users/andrew/Programs/darkwinds/contracts/mocks/SafeMathMock.sol",
  "compiler": {
    "name": "solc",
    "version": "0.4.21+commit.dfe3193c.Emscripten.clang"
  },
  "schemaVersion": "2.0.0",
  "updatedAt": "2018-04-26T05:59:14.850Z"
}